{"contracts/RecyclingSystem.sol":{"RecyclingSystem":{"abi":[{"inputs":[],"stateMutability":"nonpayable","type":"constructor"},{"anonymous":false,"inputs":[{"indexed":false,"internalType":"uint256","name":"itemId","type":"uint256"},{"indexed":true,"internalType":"address","name":"user","type":"address"},{"indexed":false,"internalType":"uint256","name":"price","type":"uint256"}],"name":"ItemAdded","type":"event"},{"anonymous":false,"inputs":[{"indexed":false,"internalType":"uint256","name":"itemId","type":"uint256"},{"indexed":true,"internalType":"address","name":"middleman","type":"address"},{"indexed":false,"internalType":"uint256","name":"userReward","type":"uint256"},{"indexed":false,"internalType":"uint256","name":"middlemanReward","type":"uint256"}],"name":"ItemVerified","type":"event"},{"inputs":[{"internalType":"uint256","name":"price","type":"uint256"}],"name":"addItem","outputs":[],"stateMutability":"nonpayable","type":"function"},{"inputs":[],"name":"company","outputs":[{"internalType":"address","name":"","type":"address"}],"stateMutability":"view","type":"function"},{"inputs":[],"name":"deposit","outputs":[],"stateMutability":"payable","type":"function"},{"inputs":[],"name":"itemCount","outputs":[{"internalType":"uint256","name":"","type":"uint256"}],"stateMutability":"view","type":"function"},{"inputs":[{"internalType":"uint256","name":"","type":"uint256"}],"name":"items","outputs":[{"internalType":"address","name":"user","type":"address"},{"internalType":"address","name":"middleman","type":"address"},{"internalType":"uint256","name":"price","type":"uint256"},{"internalType":"bool","name":"verified","type":"bool"}],"stateMutability":"view","type":"function"},{"inputs":[{"internalType":"uint256","name":"itemId","type":"uint256"},{"internalType":"address","name":"middleman","type":"address"}],"name":"verifyItem","outputs":[],"stateMutability":"nonpayable","type":"function"}],"evm":{"bytecode":{"linkReferences":{},"object":"6080604052348015600f57600080fd5b50336000806101000a81548173ffffffffffffffffffffffffffffffffffffffff021916908373ffffffffffffffffffffffffffffffffffffffff160217905550610be08061005f6000396000f3fe6080604052600436106100555760003560e01c80636904c94d1461005a5780636bfb0d0114610085578063be634045146100b0578063bfb231d2146100d9578063d0e30db014610119578063d8fbfa8814610123575b600080fd5b34801561006657600080fd5b5061006f61014c565b60405161007c919061073d565b60405180910390f35b34801561009157600080fd5b5061009a610170565b6040516100a79190610771565b60405180910390f35b3480156100bc57600080fd5b506100d760048036038101906100d291906107bd565b610176565b005b3480156100e557600080fd5b5061010060048036038101906100fb91906107bd565b610304565b6040516101109493929190610805565b60405180910390f35b610121610381565b005b34801561012f57600080fd5b5061014a60048036038101906101459190610876565b610411565b005b60008054906101000a900473ffffffffffffffffffffffffffffffffffffffff1681565b60025481565b60026000815480929190610189906108e5565b919050555060405180608001604052803373ffffffffffffffffffffffffffffffffffffffff168152602001600073ffffffffffffffffffffffffffffffffffffffff1681526020018281526020016000151581525060016000600254815260200190815260200160002060008201518160000160006101000a81548173ffffffffffffffffffffffffffffffffffffffff021916908373ffffffffffffffffffffffffffffffffffffffff16021790555060208201518160010160006101000a81548173ffffffffffffffffffffffffffffffffffffffff021916908373ffffffffffffffffffffffffffffffffffffffff1602179055506040820151816002015560608201518160030160006101000a81548160ff0219169083151502179055509050503373ffffffffffffffffffffffffffffffffffffffff167f1e74f4405cb5c0035c4e21b0c835509157e5dc5146705c750acfccb5f0d70b86600254836040516102f992919061092d565b60405180910390a250565b60016020528060005260406000206000915090508060000160009054906101000a900473ffffffffffffffffffffffffffffffffffffffff16908060010160009054906101000a900473ffffffffffffffffffffffffffffffffffffffff16908060020154908060030160009054906101000a900460ff16905084565b60008054906101000a900473ffffffffffffffffffffffffffffffffffffffff1673ffffffffffffffffffffffffffffffffffffffff163373ffffffffffffffffffffffffffffffffffffffff161461040f576040517f08c379a0000000000000000000000000000000000000000000000000000000008152600401610406906109d9565b60405180910390fd5b565b60008054906101000a900473ffffffffffffffffffffffffffffffffffffffff1673ffffffffffffffffffffffffffffffffffffffff163373ffffffffffffffffffffffffffffffffffffffff161461049f576040517f08c379a0000000000000000000000000000000000000000000000000000000008152600401610496906109d9565b60405180910390fd5b60006001600084815260200190815260200160002090508060030160009054906101000a900460ff1615610508576040517f08c379a00000000000000000000000000000000000000000000000000000000081526004016104ff90610a45565b60405180910390fd5b600060646050836002015461051d9190610a65565b6105279190610ad6565b9050600060646014846002015461053e9190610a65565b6105489190610ad6565b90508260020154471015610591576040517f08c379a000000000000000000000000000000000000000000000000000000000815260040161058890610b53565b60405180910390fd5b8260000160009054906101000a900473ffffffffffffffffffffffffffffffffffffffff1673ffffffffffffffffffffffffffffffffffffffff166108fc839081150290604051600060405180830381858888f193505050501580156105fb573d6000803e3d6000fd5b508373ffffffffffffffffffffffffffffffffffffffff166108fc829081150290604051600060405180830381858888f19350505050158015610642573d6000803e3d6000fd5b50838360010160006101000a81548173ffffffffffffffffffffffffffffffffffffffff021916908373ffffffffffffffffffffffffffffffffffffffff16021790555060018360030160006101000a81548160ff0219169083151502179055508373ffffffffffffffffffffffffffffffffffffffff167f46bf1f98b9775a32989894ff0430e4af5c74a67187af3df15c44086b79e83bb48684846040516106ed93929190610b73565b60405180910390a25050505050565b600073ffffffffffffffffffffffffffffffffffffffff82169050919050565b6000610727826106fc565b9050919050565b6107378161071c565b82525050565b6000602082019050610752600083018461072e565b92915050565b6000819050919050565b61076b81610758565b82525050565b60006020820190506107866000830184610762565b92915050565b600080fd5b61079a81610758565b81146107a557600080fd5b50565b6000813590506107b781610791565b92915050565b6000602082840312156107d3576107d261078c565b5b60006107e1848285016107a8565b91505092915050565b60008115159050919050565b6107ff816107ea565b82525050565b600060808201905061081a600083018761072e565b610827602083018661072e565b6108346040830185610762565b61084160608301846107f6565b95945050505050565b6108538161071c565b811461085e57600080fd5b50565b6000813590506108708161084a565b92915050565b6000806040838503121561088d5761088c61078c565b5b600061089b858286016107a8565b92505060206108ac85828601610861565b9150509250929050565b7f4e487b7100000000000000000000000000000000000000000000000000000000600052601160045260246000fd5b60006108f082610758565b91507fffffffffffffffffffffffffffffffffffffffffffffffffffffffffffffffff8203610922576109216108b6565b5b600182019050919050565b60006040820190506109426000830185610762565b61094f6020830184610762565b9392505050565b600082825260208201905092915050565b7f4f6e6c7920636f6d70616e792063616e20706572666f726d207468697320616360008201527f74696f6e00000000000000000000000000000000000000000000000000000000602082015250565b60006109c3602483610956565b91506109ce82610967565b604082019050919050565b600060208201905081810360008301526109f2816109b6565b9050919050565b7f4974656d20616c72656164792076657269666965640000000000000000000000600082015250565b6000610a2f601583610956565b9150610a3a826109f9565b602082019050919050565b60006020820190508181036000830152610a5e81610a22565b9050919050565b6000610a7082610758565b9150610a7b83610758565b9250828202610a8981610758565b91508282048414831517610aa057610a9f6108b6565b5b5092915050565b7f4e487b7100000000000000000000000000000000000000000000000000000000600052601260045260246000fd5b6000610ae182610758565b9150610aec83610758565b925082610afc57610afb610aa7565b5b828204905092915050565b7f496e73756666696369656e7420636f6e74726163742062616c616e6365000000600082015250565b6000610b3d601d83610956565b9150610b4882610b07565b602082019050919050565b60006020820190508181036000830152610b6c81610b30565b9050919050565b6000606082019050610b886000830186610762565b610b956020830185610762565b610ba26040830184610762565b94935050505056fea2646970667358221220a18a4796630f445a69cfe5564788b51c26374c23ece25f4775580b8b52aa852964736f6c634300081c0033","opcodes":"PUSH1 0x80 PUSH1 0x40 MSTORE CALLVALUE DUP1 ISZERO PUSH1 0xF JUMPI PUSH1 0x0 DUP1 REVERT JUMPDEST POP CALLER PUSH1 0x0 DUP1 PUSH2 0x100 EXP DUP2 SLOAD DUP2 PUSH20 0xFFFFFFFFFFFFFFFFFFFFFFFFFFFFFFFFFFFFFFFF MUL NOT AND SWAP1 DUP4 PUSH20 0xFFFFFFFFFFFFFFFFFFFFFFFFFFFFFFFFFFFFFFFF AND MUL OR SWAP1 SSTORE POP PUSH2 0xBE0 DUP1 PUSH2 0x5F PUSH1 0x0 CODECOPY PUSH1 0x0 RETURN INVALID PUSH1 0x80 PUSH1 0x40 MSTORE PUSH1 0x4 CALLDATASIZE LT PUSH2 0x55 JUMPI PUSH1 0x0 CALLDATALOAD PUSH1 0xE0 SHR DUP1 PUSH4 0x6904C94D EQ PUSH2 0x5A JUMPI DUP1 PUSH4 0x6BFB0D01 EQ PUSH2 0x85 JUMPI DUP1 PUSH4 0xBE634045 EQ PUSH2 0xB0 JUMPI DUP1 PUSH4 0xBFB231D2 EQ PUSH2 0xD9 JUMPI DUP1 PUSH4 0xD0E30DB0 EQ PUSH2 0x119 JUMPI DUP1 PUSH4 0xD8FBFA88 EQ PUSH2 0x123 JUMPI JUMPDEST PUSH1 0x0 DUP1 REVERT JUMPDEST CALLVALUE DUP1 ISZERO PUSH2 0x66 JUMPI PUSH1 0x0 DUP1 REVERT JUMPDEST POP PUSH2 0x6F PUSH2 0x14C JUMP JUMPDEST PUSH1 0x40 MLOAD PUSH2 0x7C SWAP2 SWAP1 PUSH2 0x73D JUMP JUMPDEST PUSH1 0x40 MLOAD DUP1 SWAP2 SUB SWAP1 RETURN JUMPDEST CALLVALUE DUP1 ISZERO PUSH2 0x91 JUMPI PUSH1 0x0 DUP1 REVERT JUMPDEST POP PUSH2 0x9A PUSH2 0x170 JUMP JUMPDEST PUSH1 0x40 MLOAD PUSH2 0xA7 SWAP2 SWAP1 PUSH2 0x771 JUMP JUMPDEST PUSH1 0x40 MLOAD DUP1 SWAP2 SUB SWAP1 RETURN JUMPDEST CALLVALUE DUP1 ISZERO PUSH2 0xBC JUMPI PUSH1 0x0 DUP1 REVERT JUMPDEST POP PUSH2 0xD7 PUSH1 0x4 DUP1 CALLDATASIZE SUB DUP2 ADD SWAP1 PUSH2 0xD2 SWAP2 SWAP1 PUSH2 0x7BD JUMP JUMPDEST PUSH2 0x176 JUMP JUMPDEST STOP JUMPDEST CALLVALUE DUP1 ISZERO PUSH2 0xE5 JUMPI PUSH1 0x0 DUP1 REVERT JUMPDEST POP PUSH2 0x100 PUSH1 0x4 DUP1 CALLDATASIZE SUB DUP2 ADD SWAP1 PUSH2 0xFB SWAP2 SWAP1 PUSH2 0x7BD JUMP JUMPDEST PUSH2 0x304 JUMP JUMPDEST PUSH1 0x40 MLOAD PUSH2 0x110 SWAP5 SWAP4 SWAP3 SWAP2 SWAP1 PUSH2 0x805 JUMP JUMPDEST PUSH1 0x40 MLOAD DUP1 SWAP2 SUB SWAP1 RETURN JUMPDEST PUSH2 0x121 PUSH2 0x381 JUMP JUMPDEST STOP JUMPDEST CALLVALUE DUP1 ISZERO PUSH2 0x12F JUMPI PUSH1 0x0 DUP1 REVERT JUMPDEST POP PUSH2 0x14A PUSH1 0x4 DUP1 CALLDATASIZE SUB DUP2 ADD SWAP1 PUSH2 0x145 SWAP2 SWAP1 PUSH2 0x876 JUMP JUMPDEST PUSH2 0x411 JUMP JUMPDEST STOP JUMPDEST PUSH1 0x0 DUP1 SLOAD SWAP1 PUSH2 0x100 EXP SWAP1 DIV PUSH20 0xFFFFFFFFFFFFFFFFFFFFFFFFFFFFFFFFFFFFFFFF AND DUP2 JUMP JUMPDEST PUSH1 0x2 SLOAD DUP2 JUMP JUMPDEST PUSH1 0x2 PUSH1 0x0 DUP2 SLOAD DUP1 SWAP3 SWAP2 SWAP1 PUSH2 0x189 SWAP1 PUSH2 0x8E5 JUMP JUMPDEST SWAP2 SWAP1 POP SSTORE POP PUSH1 0x40 MLOAD DUP1 PUSH1 0x80 ADD PUSH1 0x40 MSTORE DUP1 CALLER PUSH20 0xFFFFFFFFFFFFFFFFFFFFFFFFFFFFFFFFFFFFFFFF AND DUP2 MSTORE PUSH1 0x20 ADD PUSH1 0x0 PUSH20 0xFFFFFFFFFFFFFFFFFFFFFFFFFFFFFFFFFFFFFFFF AND DUP2 MSTORE PUSH1 0x20 ADD DUP3 DUP2 MSTORE PUSH1 0x20 ADD PUSH1 0x0 ISZERO ISZERO DUP2 MSTORE POP PUSH1 0x1 PUSH1 0x0 PUSH1 0x2 SLOAD DUP2 MSTORE PUSH1 0x20 ADD SWAP1 DUP2 MSTORE PUSH1 0x20 ADD PUSH1 0x0 KECCAK256 PUSH1 0x0 DUP3 ADD MLOAD DUP2 PUSH1 0x0 ADD PUSH1 0x0 PUSH2 0x100 EXP DUP2 SLOAD DUP2 PUSH20 0xFFFFFFFFFFFFFFFFFFFFFFFFFFFFFFFFFFFFFFFF MUL NOT AND SWAP1 DUP4 PUSH20 0xFFFFFFFFFFFFFFFFFFFFFFFFFFFFFFFFFFFFFFFF AND MUL OR SWAP1 SSTORE POP PUSH1 0x20 DUP3 ADD MLOAD DUP2 PUSH1 0x1 ADD PUSH1 0x0 PUSH2 0x100 EXP DUP2 SLOAD DUP2 PUSH20 0xFFFFFFFFFFFFFFFFFFFFFFFFFFFFFFFFFFFFFFFF MUL NOT AND SWAP1 DUP4 PUSH20 0xFFFFFFFFFFFFFFFFFFFFFFFFFFFFFFFFFFFFFFFF AND MUL OR SWAP1 SSTORE POP PUSH1 0x40 DUP3 ADD MLOAD DUP2 PUSH1 0x2 ADD SSTORE PUSH1 0x60 DUP3 ADD MLOAD DUP2 PUSH1 0x3 ADD PUSH1 0x0 PUSH2 0x100 EXP DUP2 SLOAD DUP2 PUSH1 0xFF MUL NOT AND SWAP1 DUP4 ISZERO ISZERO MUL OR SWAP1 SSTORE POP SWAP1 POP POP CALLER PUSH20 0xFFFFFFFFFFFFFFFFFFFFFFFFFFFFFFFFFFFFFFFF AND PUSH32 0x1E74F4405CB5C0035C4E21B0C835509157E5DC5146705C750ACFCCB5F0D70B86 PUSH1 0x2 SLOAD DUP4 PUSH1 0x40 MLOAD PUSH2 0x2F9 SWAP3 SWAP2 SWAP1 PUSH2 0x92D JUMP JUMPDEST PUSH1 0x40 MLOAD DUP1 SWAP2 SUB SWAP1 LOG2 POP JUMP JUMPDEST PUSH1 0x1 PUSH1 0x20 MSTORE DUP1 PUSH1 0x0 MSTORE PUSH1 0x40 PUSH1 0x0 KECCAK256 PUSH1 0x0 SWAP2 POP SWAP1 POP DUP1 PUSH1 0x0 ADD PUSH1 0x0 SWAP1 SLOAD SWAP1 PUSH2 0x100 EXP SWAP1 DIV PUSH20 0xFFFFFFFFFFFFFFFFFFFFFFFFFFFFFFFFFFFFFFFF AND SWAP1 DUP1 PUSH1 0x1 ADD PUSH1 0x0 SWAP1 SLOAD SWAP1 PUSH2 0x100 EXP SWAP1 DIV PUSH20 0xFFFFFFFFFFFFFFFFFFFFFFFFFFFFFFFFFFFFFFFF AND SWAP1 DUP1 PUSH1 0x2 ADD SLOAD SWAP1 DUP1 PUSH1 0x3 ADD PUSH1 0x0 SWAP1 SLOAD SWAP1 PUSH2 0x100 EXP SWAP1 DIV PUSH1 0xFF AND SWAP1 POP DUP5 JUMP JUMPDEST PUSH1 0x0 DUP1 SLOAD SWAP1 PUSH2 0x100 EXP SWAP1 DIV PUSH20 0xFFFFFFFFFFFFFFFFFFFFFFFFFFFFFFFFFFFFFFFF AND PUSH20 0xFFFFFFFFFFFFFFFFFFFFFFFFFFFFFFFFFFFFFFFF AND CALLER PUSH20 0xFFFFFFFFFFFFFFFFFFFFFFFFFFFFFFFFFFFFFFFF AND EQ PUSH2 0x40F JUMPI PUSH1 0x40 MLOAD PUSH32 0x8C379A000000000000000000000000000000000000000000000000000000000 DUP2 MSTORE PUSH1 0x4 ADD PUSH2 0x406 SWAP1 PUSH2 0x9D9 JUMP JUMPDEST PUSH1 0x40 MLOAD DUP1 SWAP2 SUB SWAP1 REVERT JUMPDEST JUMP JUMPDEST PUSH1 0x0 DUP1 SLOAD SWAP1 PUSH2 0x100 EXP SWAP1 DIV PUSH20 0xFFFFFFFFFFFFFFFFFFFFFFFFFFFFFFFFFFFFFFFF AND PUSH20 0xFFFFFFFFFFFFFFFFFFFFFFFFFFFFFFFFFFFFFFFF AND CALLER PUSH20 0xFFFFFFFFFFFFFFFFFFFFFFFFFFFFFFFFFFFFFFFF AND EQ PUSH2 0x49F JUMPI PUSH1 0x40 MLOAD PUSH32 0x8C379A000000000000000000000000000000000000000000000000000000000 DUP2 MSTORE PUSH1 0x4 ADD PUSH2 0x496 SWAP1 PUSH2 0x9D9 JUMP JUMPDEST PUSH1 0x40 MLOAD DUP1 SWAP2 SUB SWAP1 REVERT JUMPDEST PUSH1 0x0 PUSH1 0x1 PUSH1 0x0 DUP5 DUP2 MSTORE PUSH1 0x20 ADD SWAP1 DUP2 MSTORE PUSH1 0x20 ADD PUSH1 0x0 KECCAK256 SWAP1 POP DUP1 PUSH1 0x3 ADD PUSH1 0x0 SWAP1 SLOAD SWAP1 PUSH2 0x100 EXP SWAP1 DIV PUSH1 0xFF AND ISZERO PUSH2 0x508 JUMPI PUSH1 0x40 MLOAD PUSH32 0x8C379A000000000000000000000000000000000000000000000000000000000 DUP2 MSTORE PUSH1 0x4 ADD PUSH2 0x4FF SWAP1 PUSH2 0xA45 JUMP JUMPDEST PUSH1 0x40 MLOAD DUP1 SWAP2 SUB SWAP1 REVERT JUMPDEST PUSH1 0x0 PUSH1 0x64 PUSH1 0x50 DUP4 PUSH1 0x2 ADD SLOAD PUSH2 0x51D SWAP2 SWAP1 PUSH2 0xA65 JUMP JUMPDEST PUSH2 0x527 SWAP2 SWAP1 PUSH2 0xAD6 JUMP JUMPDEST SWAP1 POP PUSH1 0x0 PUSH1 0x64 PUSH1 0x14 DUP5 PUSH1 0x2 ADD SLOAD PUSH2 0x53E SWAP2 SWAP1 PUSH2 0xA65 JUMP JUMPDEST PUSH2 0x548 SWAP2 SWAP1 PUSH2 0xAD6 JUMP JUMPDEST SWAP1 POP DUP3 PUSH1 0x2 ADD SLOAD SELFBALANCE LT ISZERO PUSH2 0x591 JUMPI PUSH1 0x40 MLOAD PUSH32 0x8C379A000000000000000000000000000000000000000000000000000000000 DUP2 MSTORE PUSH1 0x4 ADD PUSH2 0x588 SWAP1 PUSH2 0xB53 JUMP JUMPDEST PUSH1 0x40 MLOAD DUP1 SWAP2 SUB SWAP1 REVERT JUMPDEST DUP3 PUSH1 0x0 ADD PUSH1 0x0 SWAP1 SLOAD SWAP1 PUSH2 0x100 EXP SWAP1 DIV PUSH20 0xFFFFFFFFFFFFFFFFFFFFFFFFFFFFFFFFFFFFFFFF AND PUSH20 0xFFFFFFFFFFFFFFFFFFFFFFFFFFFFFFFFFFFFFFFF AND PUSH2 0x8FC DUP4 SWAP1 DUP2 ISZERO MUL SWAP1 PUSH1 0x40 MLOAD PUSH1 0x0 PUSH1 0x40 MLOAD DUP1 DUP4 SUB DUP2 DUP6 DUP9 DUP9 CALL SWAP4 POP POP POP POP ISZERO DUP1 ISZERO PUSH2 0x5FB JUMPI RETURNDATASIZE PUSH1 0x0 DUP1 RETURNDATACOPY RETURNDATASIZE PUSH1 0x0 REVERT JUMPDEST POP DUP4 PUSH20 0xFFFFFFFFFFFFFFFFFFFFFFFFFFFFFFFFFFFFFFFF AND PUSH2 0x8FC DUP3 SWAP1 DUP2 ISZERO MUL SWAP1 PUSH1 0x40 MLOAD PUSH1 0x0 PUSH1 0x40 MLOAD DUP1 DUP4 SUB DUP2 DUP6 DUP9 DUP9 CALL SWAP4 POP POP POP POP ISZERO DUP1 ISZERO PUSH2 0x642 JUMPI RETURNDATASIZE PUSH1 0x0 DUP1 RETURNDATACOPY RETURNDATASIZE PUSH1 0x0 REVERT JUMPDEST POP DUP4 DUP4 PUSH1 0x1 ADD PUSH1 0x0 PUSH2 0x100 EXP DUP2 SLOAD DUP2 PUSH20 0xFFFFFFFFFFFFFFFFFFFFFFFFFFFFFFFFFFFFFFFF MUL NOT AND SWAP1 DUP4 PUSH20 0xFFFFFFFFFFFFFFFFFFFFFFFFFFFFFFFFFFFFFFFF AND MUL OR SWAP1 SSTORE POP PUSH1 0x1 DUP4 PUSH1 0x3 ADD PUSH1 0x0 PUSH2 0x100 EXP DUP2 SLOAD DUP2 PUSH1 0xFF MUL NOT AND SWAP1 DUP4 ISZERO ISZERO MUL OR SWAP1 SSTORE POP DUP4 PUSH20 0xFFFFFFFFFFFFFFFFFFFFFFFFFFFFFFFFFFFFFFFF AND PUSH32 0x46BF1F98B9775A32989894FF0430E4AF5C74A67187AF3DF15C44086B79E83BB4 DUP7 DUP5 DUP5 PUSH1 0x40 MLOAD PUSH2 0x6ED SWAP4 SWAP3 SWAP2 SWAP1 PUSH2 0xB73 JUMP JUMPDEST PUSH1 0x40 MLOAD DUP1 SWAP2 SUB SWAP1 LOG2 POP POP POP POP POP JUMP JUMPDEST PUSH1 0x0 PUSH20 0xFFFFFFFFFFFFFFFFFFFFFFFFFFFFFFFFFFFFFFFF DUP3 AND SWAP1 POP SWAP2 SWAP1 POP JUMP JUMPDEST PUSH1 0x0 PUSH2 0x727 DUP3 PUSH2 0x6FC JUMP JUMPDEST SWAP1 POP SWAP2 SWAP1 POP JUMP JUMPDEST PUSH2 0x737 DUP2 PUSH2 0x71C JUMP JUMPDEST DUP3 MSTORE POP POP JUMP JUMPDEST PUSH1 0x0 PUSH1 0x20 DUP3 ADD SWAP1 POP PUSH2 0x752 PUSH1 0x0 DUP4 ADD DUP5 PUSH2 0x72E JUMP JUMPDEST SWAP3 SWAP2 POP POP JUMP JUMPDEST PUSH1 0x0 DUP2 SWAP1 POP SWAP2 SWAP1 POP JUMP JUMPDEST PUSH2 0x76B DUP2 PUSH2 0x758 JUMP JUMPDEST DUP3 MSTORE POP POP JUMP JUMPDEST PUSH1 0x0 PUSH1 0x20 DUP3 ADD SWAP1 POP PUSH2 0x786 PUSH1 0x0 DUP4 ADD DUP5 PUSH2 0x762 JUMP JUMPDEST SWAP3 SWAP2 POP POP JUMP JUMPDEST PUSH1 0x0 DUP1 REVERT JUMPDEST PUSH2 0x79A DUP2 PUSH2 0x758 JUMP JUMPDEST DUP2 EQ PUSH2 0x7A5 JUMPI PUSH1 0x0 DUP1 REVERT JUMPDEST POP JUMP JUMPDEST PUSH1 0x0 DUP2 CALLDATALOAD SWAP1 POP PUSH2 0x7B7 DUP2 PUSH2 0x791 JUMP JUMPDEST SWAP3 SWAP2 POP POP JUMP JUMPDEST PUSH1 0x0 PUSH1 0x20 DUP3 DUP5 SUB SLT ISZERO PUSH2 0x7D3 JUMPI PUSH2 0x7D2 PUSH2 0x78C JUMP JUMPDEST JUMPDEST PUSH1 0x0 PUSH2 0x7E1 DUP5 DUP3 DUP6 ADD PUSH2 0x7A8 JUMP JUMPDEST SWAP2 POP POP SWAP3 SWAP2 POP POP JUMP JUMPDEST PUSH1 0x0 DUP2 ISZERO ISZERO SWAP1 POP SWAP2 SWAP1 POP JUMP JUMPDEST PUSH2 0x7FF DUP2 PUSH2 0x7EA JUMP JUMPDEST DUP3 MSTORE POP POP JUMP JUMPDEST PUSH1 0x0 PUSH1 0x80 DUP3 ADD SWAP1 POP PUSH2 0x81A PUSH1 0x0 DUP4 ADD DUP8 PUSH2 0x72E JUMP JUMPDEST PUSH2 0x827 PUSH1 0x20 DUP4 ADD DUP7 PUSH2 0x72E JUMP JUMPDEST PUSH2 0x834 PUSH1 0x40 DUP4 ADD DUP6 PUSH2 0x762 JUMP JUMPDEST PUSH2 0x841 PUSH1 0x60 DUP4 ADD DUP5 PUSH2 0x7F6 JUMP JUMPDEST SWAP6 SWAP5 POP POP POP POP POP JUMP JUMPDEST PUSH2 0x853 DUP2 PUSH2 0x71C JUMP JUMPDEST DUP2 EQ PUSH2 0x85E JUMPI PUSH1 0x0 DUP1 REVERT JUMPDEST POP JUMP JUMPDEST PUSH1 0x0 DUP2 CALLDATALOAD SWAP1 POP PUSH2 0x870 DUP2 PUSH2 0x84A JUMP JUMPDEST SWAP3 SWAP2 POP POP JUMP JUMPDEST PUSH1 0x0 DUP1 PUSH1 0x40 DUP4 DUP6 SUB SLT ISZERO PUSH2 0x88D JUMPI PUSH2 0x88C PUSH2 0x78C JUMP JUMPDEST JUMPDEST PUSH1 0x0 PUSH2 0x89B DUP6 DUP3 DUP7 ADD PUSH2 0x7A8 JUMP JUMPDEST SWAP3 POP POP PUSH1 0x20 PUSH2 0x8AC DUP6 DUP3 DUP7 ADD PUSH2 0x861 JUMP JUMPDEST SWAP2 POP POP SWAP3 POP SWAP3 SWAP1 POP JUMP JUMPDEST PUSH32 0x4E487B7100000000000000000000000000000000000000000000000000000000 PUSH1 0x0 MSTORE PUSH1 0x11 PUSH1 0x4 MSTORE PUSH1 0x24 PUSH1 0x0 REVERT JUMPDEST PUSH1 0x0 PUSH2 0x8F0 DUP3 PUSH2 0x758 JUMP JUMPDEST SWAP2 POP PUSH32 0xFFFFFFFFFFFFFFFFFFFFFFFFFFFFFFFFFFFFFFFFFFFFFFFFFFFFFFFFFFFFFFFF DUP3 SUB PUSH2 0x922 JUMPI PUSH2 0x921 PUSH2 0x8B6 JUMP JUMPDEST JUMPDEST PUSH1 0x1 DUP3 ADD SWAP1 POP SWAP2 SWAP1 POP JUMP JUMPDEST PUSH1 0x0 PUSH1 0x40 DUP3 ADD SWAP1 POP PUSH2 0x942 PUSH1 0x0 DUP4 ADD DUP6 PUSH2 0x762 JUMP JUMPDEST PUSH2 0x94F PUSH1 0x20 DUP4 ADD DUP5 PUSH2 0x762 JUMP JUMPDEST SWAP4 SWAP3 POP POP POP JUMP JUMPDEST PUSH1 0x0 DUP3 DUP3 MSTORE PUSH1 0x20 DUP3 ADD SWAP1 POP SWAP3 SWAP2 POP POP JUMP JUMPDEST PUSH32 0x4F6E6C7920636F6D70616E792063616E20706572666F726D2074686973206163 PUSH1 0x0 DUP3 ADD MSTORE PUSH32 0x74696F6E00000000000000000000000000000000000000000000000000000000 PUSH1 0x20 DUP3 ADD MSTORE POP JUMP JUMPDEST PUSH1 0x0 PUSH2 0x9C3 PUSH1 0x24 DUP4 PUSH2 0x956 JUMP JUMPDEST SWAP2 POP PUSH2 0x9CE DUP3 PUSH2 0x967 JUMP JUMPDEST PUSH1 0x40 DUP3 ADD SWAP1 POP SWAP2 SWAP1 POP JUMP JUMPDEST PUSH1 0x0 PUSH1 0x20 DUP3 ADD SWAP1 POP DUP2 DUP2 SUB PUSH1 0x0 DUP4 ADD MSTORE PUSH2 0x9F2 DUP2 PUSH2 0x9B6 JUMP JUMPDEST SWAP1 POP SWAP2 SWAP1 POP JUMP JUMPDEST PUSH32 0x4974656D20616C72656164792076657269666965640000000000000000000000 PUSH1 0x0 DUP3 ADD MSTORE POP JUMP JUMPDEST PUSH1 0x0 PUSH2 0xA2F PUSH1 0x15 DUP4 PUSH2 0x956 JUMP JUMPDEST SWAP2 POP PUSH2 0xA3A DUP3 PUSH2 0x9F9 JUMP JUMPDEST PUSH1 0x20 DUP3 ADD SWAP1 POP SWAP2 SWAP1 POP JUMP JUMPDEST PUSH1 0x0 PUSH1 0x20 DUP3 ADD SWAP1 POP DUP2 DUP2 SUB PUSH1 0x0 DUP4 ADD MSTORE PUSH2 0xA5E DUP2 PUSH2 0xA22 JUMP JUMPDEST SWAP1 POP SWAP2 SWAP1 POP JUMP JUMPDEST PUSH1 0x0 PUSH2 0xA70 DUP3 PUSH2 0x758 JUMP JUMPDEST SWAP2 POP PUSH2 0xA7B DUP4 PUSH2 0x758 JUMP JUMPDEST SWAP3 POP DUP3 DUP3 MUL PUSH2 0xA89 DUP2 PUSH2 0x758 JUMP JUMPDEST SWAP2 POP DUP3 DUP3 DIV DUP5 EQ DUP4 ISZERO OR PUSH2 0xAA0 JUMPI PUSH2 0xA9F PUSH2 0x8B6 JUMP JUMPDEST JUMPDEST POP SWAP3 SWAP2 POP POP JUMP JUMPDEST PUSH32 0x4E487B7100000000000000000000000000000000000000000000000000000000 PUSH1 0x0 MSTORE PUSH1 0x12 PUSH1 0x4 MSTORE PUSH1 0x24 PUSH1 0x0 REVERT JUMPDEST PUSH1 0x0 PUSH2 0xAE1 DUP3 PUSH2 0x758 JUMP JUMPDEST SWAP2 POP PUSH2 0xAEC DUP4 PUSH2 0x758 JUMP JUMPDEST SWAP3 POP DUP3 PUSH2 0xAFC JUMPI PUSH2 0xAFB PUSH2 0xAA7 JUMP JUMPDEST JUMPDEST DUP3 DUP3 DIV SWAP1 POP SWAP3 SWAP2 POP POP JUMP JUMPDEST PUSH32 0x496E73756666696369656E7420636F6E74726163742062616C616E6365000000 PUSH1 0x0 DUP3 ADD MSTORE POP JUMP JUMPDEST PUSH1 0x0 PUSH2 0xB3D PUSH1 0x1D DUP4 PUSH2 0x956 JUMP JUMPDEST SWAP2 POP PUSH2 0xB48 DUP3 PUSH2 0xB07 JUMP JUMPDEST PUSH1 0x20 DUP3 ADD SWAP1 POP SWAP2 SWAP1 POP JUMP JUMPDEST PUSH1 0x0 PUSH1 0x20 DUP3 ADD SWAP1 POP DUP2 DUP2 SUB PUSH1 0x0 DUP4 ADD MSTORE PUSH2 0xB6C DUP2 PUSH2 0xB30 JUMP JUMPDEST SWAP1 POP SWAP2 SWAP1 POP JUMP JUMPDEST PUSH1 0x0 PUSH1 0x60 DUP3 ADD SWAP1 POP PUSH2 0xB88 PUSH1 0x0 DUP4 ADD DUP7 PUSH2 0x762 JUMP JUMPDEST PUSH2 0xB95 PUSH1 0x20 DUP4 ADD DUP6 PUSH2 0x762 JUMP JUMPDEST PUSH2 0xBA2 PUSH1 0x40 DUP4 ADD DUP5 PUSH2 0x762 JUMP JUMPDEST SWAP5 SWAP4 POP POP POP POP JUMP INVALID LOG2 PUSH5 0x6970667358 0x22 SLT KECCAK256 LOG1 DUP11 SELFBALANCE SWAP7 PUSH4 0xF445A69 0xCF 0xE5 JUMP SELFBALANCE DUP9 0xB5 SHR 0x26 CALLDATACOPY 0x4C 0x23 0xEC 0xE2 PUSH0 SELFBALANCE PUSH22 0x580B8B52AA852964736F6C634300081C003300000000 "},"methodIdentifiers":{"addItem(uint256)":"be634045","company()":"6904c94d","deposit()":"d0e30db0","itemCount()":"6bfb0d01","items(uint256)":"bfb231d2","verifyItem(uint256,address)":"d8fbfa88"}}}}}