{
  "_format": "hh-sol-artifact-1",
  "contractName": "PaymentForwarder",
  "sourceName": "contracts/RecyclingSystem.sol",
  "abi": [
    {
      "anonymous": false,
      "inputs": [
        {
          "indexed": true,
          "internalType": "address",
          "name": "sender",
          "type": "address"
        },
        {
          "indexed": true,
          "internalType": "address",
          "name": "recipient",
          "type": "address"
        },
        {
          "indexed": false,
          "internalType": "uint256",
          "name": "amount",
          "type": "uint256"
        }
      ],
      "name": "PaymentForwarded",
      "type": "event"
    },
    {
      "inputs": [
        {
          "internalType": "address",
          "name": "recipient",
          "type": "address"
        },
        {
          "internalType": "uint256",
          "name": "amount",
          "type": "uint256"
        }
      ],
      "name": "forwardFunds",
      "outputs": [],
      "stateMutability": "payable",
      "type": "function"
    },
    {
      "stateMutability": "payable",
      "type": "receive"
    }
  ],
  "bytecode": "0x6080604052348015600f57600080fd5b506103f38061001f6000396000f3fe6080604052600436106100225760003560e01c806392878bd01461002e57610029565b3661002957005b600080fd5b61004860048036038101906100439190610244565b61004a565b005b80341461008c576040517f08c379a000000000000000000000000000000000000000000000000000000000815260040161008390610307565b60405180910390fd5b600073ffffffffffffffffffffffffffffffffffffffff168273ffffffffffffffffffffffffffffffffffffffff16036100fb576040517f08c379a00000000000000000000000000000000000000000000000000000000081526004016100f290610373565b60405180910390fd5b8173ffffffffffffffffffffffffffffffffffffffff166108fc829081150290604051600060405180830381858888f19350505050158015610141573d6000803e3d6000fd5b508173ffffffffffffffffffffffffffffffffffffffff163373ffffffffffffffffffffffffffffffffffffffff167f706d61ac1ae26a220541b8edd6e575a4b8a2347d6d6b1c14e5cf19fc933935c18360405161019f91906103a2565b60405180910390a35050565b600080fd5b600073ffffffffffffffffffffffffffffffffffffffff82169050919050565b60006101db826101b0565b9050919050565b6101eb816101d0565b81146101f657600080fd5b50565b600081359050610208816101e2565b92915050565b6000819050919050565b6102218161020e565b811461022c57600080fd5b50565b60008135905061023e81610218565b92915050565b6000806040838503121561025b5761025a6101ab565b5b6000610269858286016101f9565b925050602061027a8582860161022f565b9150509250929050565b600082825260208201905092915050565b7f53656e7420455448206d75737420657175616c2073706563696669656420616d60008201527f6f756e7400000000000000000000000000000000000000000000000000000000602082015250565b60006102f1602483610284565b91506102fc82610295565b604082019050919050565b60006020820190508181036000830152610320816102e4565b9050919050565b7f496e76616c696420726563697069656e74206164647265737300000000000000600082015250565b600061035d601983610284565b915061036882610327565b602082019050919050565b6000602082019050818103600083015261038c81610350565b9050919050565b61039c8161020e565b82525050565b60006020820190506103b76000830184610393565b9291505056fea26469706673582212203cf0ba8db69e3ea86b4a4185000162bede9ef7cf4513d40b1e0dbd5db3fc2ebe64736f6c634300081c0033",
  "linkReferences": {},
  "deployedLinkReferences": {}
}