{
  "_format": "hh-sol-artifact-1",
  "contractName": "PaymentForwarder",
  "sourceName": "contracts/RecyclingSystem.sol",
  "abi": [
    {
      "anonymous": false,
      "inputs": [
        {
          "indexed": true,
          "internalType": "address",
          "name": "sender",
          "type": "address"
        },
        {
          "indexed": true,
          "internalType": "address",
          "name": "recipient",
          "type": "address"
        },
        {
          "indexed": false,
          "internalType": "uint256",
          "name": "amount",
          "type": "uint256"
        }
      ],
      "name": "PaymentForwarded",
      "type": "event"
    },
    {
      "inputs": [
        {
          "internalType": "address",
          "name": "recipient",
          "type": "address"
        },
        {
          "internalType": "uint256",
          "name": "amount",
          "type": "uint256"
        }
      ],
      "name": "forwardFunds",
      "outputs": [],
      "stateMutability": "payable",
      "type": "function"
    },
    {
      "stateMutability": "payable",
      "type": "receive"
    }
  ],
  "bytecode": "0x6080604052348015600f57600080fd5b506103188061001f6000396000f3fe6080604052600436106100225760003560e01c806392878bd01461002e57610029565b3661002957005b600080fd5b610048600480360381019061004391906101d5565b61004a565b005b80341461008c576040517f08c379a000000000000000000000000000000000000000000000000000000000815260040161008390610298565b60405180910390fd5b8173ffffffffffffffffffffffffffffffffffffffff166108fc829081150290604051600060405180830381858888f193505050501580156100d2573d6000803e3d6000fd5b508173ffffffffffffffffffffffffffffffffffffffff163373ffffffffffffffffffffffffffffffffffffffff167f706d61ac1ae26a220541b8edd6e575a4b8a2347d6d6b1c14e5cf19fc933935c18360405161013091906102c7565b60405180910390a35050565b600080fd5b600073ffffffffffffffffffffffffffffffffffffffff82169050919050565b600061016c82610141565b9050919050565b61017c81610161565b811461018757600080fd5b50565b60008135905061019981610173565b92915050565b6000819050919050565b6101b28161019f565b81146101bd57600080fd5b50565b6000813590506101cf816101a9565b92915050565b600080604083850312156101ec576101eb61013c565b5b60006101fa8582860161018a565b925050602061020b858286016101c0565b9150509250929050565b600082825260208201905092915050565b7f53656e7420455448206d75737420657175616c2073706563696669656420616d60008201527f6f756e7400000000000000000000000000000000000000000000000000000000602082015250565b6000610282602483610215565b915061028d82610226565b604082019050919050565b600060208201905081810360008301526102b181610275565b9050919050565b6102c18161019f565b82525050565b60006020820190506102dc60008301846102b8565b9291505056fea2646970667358221220d9ee9c4b879ccb7ca505757ea3a74e0f2606eb5fe064d3aef64c8ae6c78e725e64736f6c634300081c0033",
  "linkReferences": {},
  "deployedLinkReferences": {}
}