{
  "_format": "hh-sol-artifact-1",
  "contractName": "RecyclingSystem",
  "sourceName": "contracts/RecyclingSystem.sol",
  "abi": [
    {
      "inputs": [],
      "stateMutability": "nonpayable",
      "type": "constructor"
    },
    {
      "anonymous": false,
      "inputs": [
        {
          "indexed": false,
          "internalType": "uint256",
          "name": "itemId",
          "type": "uint256"
        },
        {
          "indexed": true,
          "internalType": "address",
          "name": "user",
          "type": "address"
        },
        {
          "indexed": false,
          "internalType": "uint256",
          "name": "price",
          "type": "uint256"
        }
      ],
      "name": "ItemAdded",
      "type": "event"
    },
    {
      "anonymous": false,
      "inputs": [
        {
          "indexed": false,
          "internalType": "uint256",
          "name": "itemId",
          "type": "uint256"
        },
        {
          "indexed": true,
          "internalType": "address",
          "name": "middleman",
          "type": "address"
        },
        {
          "indexed": false,
          "internalType": "uint256",
          "name": "userReward",
          "type": "uint256"
        },
        {
          "indexed": false,
          "internalType": "uint256",
          "name": "middlemanReward",
          "type": "uint256"
        }
      ],
      "name": "ItemVerified",
      "type": "event"
    },
    {
      "inputs": [
        {
          "internalType": "uint256",
          "name": "price",
          "type": "uint256"
        }
      ],
      "name": "addItem",
      "outputs": [],
      "stateMutability": "nonpayable",
      "type": "function"
    },
    {
      "inputs": [],
      "name": "company",
      "outputs": [
        {
          "internalType": "address",
          "name": "",
          "type": "address"
        }
      ],
      "stateMutability": "view",
      "type": "function"
    },
    {
      "inputs": [],
      "name": "deposit",
      "outputs": [],
      "stateMutability": "payable",
      "type": "function"
    },
    {
      "inputs": [],
      "name": "itemCount",
      "outputs": [
        {
          "internalType": "uint256",
          "name": "",
          "type": "uint256"
        }
      ],
      "stateMutability": "view",
      "type": "function"
    },
    {
      "inputs": [
        {
          "internalType": "uint256",
          "name": "",
          "type": "uint256"
        }
      ],
      "name": "items",
      "outputs": [
        {
          "internalType": "address",
          "name": "user",
          "type": "address"
        },
        {
          "internalType": "address",
          "name": "middleman",
          "type": "address"
        },
        {
          "internalType": "uint256",
          "name": "price",
          "type": "uint256"
        },
        {
          "internalType": "bool",
          "name": "verified",
          "type": "bool"
        }
      ],
      "stateMutability": "view",
      "type": "function"
    },
    {
      "inputs": [
        {
          "internalType": "uint256",
          "name": "itemId",
          "type": "uint256"
        },
        {
          "internalType": "address",
          "name": "middleman",
          "type": "address"
        }
      ],
      "name": "verifyItem",
      "outputs": [],
      "stateMutability": "nonpayable",
      "type": "function"
    }
  ],
  "bytecode": "0x6080604052348015600f57600080fd5b50336000806101000a81548173ffffffffffffffffffffffffffffffffffffffff021916908373ffffffffffffffffffffffffffffffffffffffff160217905550610be08061005f6000396000f3fe6080604052600436106100555760003560e01c80636904c94d1461005a5780636bfb0d0114610085578063be634045146100b0578063bfb231d2146100d9578063d0e30db014610119578063d8fbfa8814610123575b600080fd5b34801561006657600080fd5b5061006f61014c565b60405161007c919061073d565b60405180910390f35b34801561009157600080fd5b5061009a610170565b6040516100a79190610771565b60405180910390f35b3480156100bc57600080fd5b506100d760048036038101906100d291906107bd565b610176565b005b3480156100e557600080fd5b5061010060048036038101906100fb91906107bd565b610304565b6040516101109493929190610805565b60405180910390f35b610121610381565b005b34801561012f57600080fd5b5061014a60048036038101906101459190610876565b610411565b005b60008054906101000a900473ffffffffffffffffffffffffffffffffffffffff1681565b60025481565b60026000815480929190610189906108e5565b919050555060405180608001604052803373ffffffffffffffffffffffffffffffffffffffff168152602001600073ffffffffffffffffffffffffffffffffffffffff1681526020018281526020016000151581525060016000600254815260200190815260200160002060008201518160000160006101000a81548173ffffffffffffffffffffffffffffffffffffffff021916908373ffffffffffffffffffffffffffffffffffffffff16021790555060208201518160010160006101000a81548173ffffffffffffffffffffffffffffffffffffffff021916908373ffffffffffffffffffffffffffffffffffffffff1602179055506040820151816002015560608201518160030160006101000a81548160ff0219169083151502179055509050503373ffffffffffffffffffffffffffffffffffffffff167f1e74f4405cb5c0035c4e21b0c835509157e5dc5146705c750acfccb5f0d70b86600254836040516102f992919061092d565b60405180910390a250565b60016020528060005260406000206000915090508060000160009054906101000a900473ffffffffffffffffffffffffffffffffffffffff16908060010160009054906101000a900473ffffffffffffffffffffffffffffffffffffffff16908060020154908060030160009054906101000a900460ff16905084565b60008054906101000a900473ffffffffffffffffffffffffffffffffffffffff1673ffffffffffffffffffffffffffffffffffffffff163373ffffffffffffffffffffffffffffffffffffffff161461040f576040517f08c379a0000000000000000000000000000000000000000000000000000000008152600401610406906109d9565b60405180910390fd5b565b60008054906101000a900473ffffffffffffffffffffffffffffffffffffffff1673ffffffffffffffffffffffffffffffffffffffff163373ffffffffffffffffffffffffffffffffffffffff161461049f576040517f08c379a0000000000000000000000000000000000000000000000000000000008152600401610496906109d9565b60405180910390fd5b60006001600084815260200190815260200160002090508060030160009054906101000a900460ff1615610508576040517f08c379a00000000000000000000000000000000000000000000000000000000081526004016104ff90610a45565b60405180910390fd5b600060646050836002015461051d9190610a65565b6105279190610ad6565b9050600060646014846002015461053e9190610a65565b6105489190610ad6565b90508260020154471015610591576040517f08c379a000000000000000000000000000000000000000000000000000000000815260040161058890610b53565b60405180910390fd5b8260000160009054906101000a900473ffffffffffffffffffffffffffffffffffffffff1673ffffffffffffffffffffffffffffffffffffffff166108fc839081150290604051600060405180830381858888f193505050501580156105fb573d6000803e3d6000fd5b508373ffffffffffffffffffffffffffffffffffffffff166108fc829081150290604051600060405180830381858888f19350505050158015610642573d6000803e3d6000fd5b50838360010160006101000a81548173ffffffffffffffffffffffffffffffffffffffff021916908373ffffffffffffffffffffffffffffffffffffffff16021790555060018360030160006101000a81548160ff0219169083151502179055508373ffffffffffffffffffffffffffffffffffffffff167f46bf1f98b9775a32989894ff0430e4af5c74a67187af3df15c44086b79e83bb48684846040516106ed93929190610b73565b60405180910390a25050505050565b600073ffffffffffffffffffffffffffffffffffffffff82169050919050565b6000610727826106fc565b9050919050565b6107378161071c565b82525050565b6000602082019050610752600083018461072e565b92915050565b6000819050919050565b61076b81610758565b82525050565b60006020820190506107866000830184610762565b92915050565b600080fd5b61079a81610758565b81146107a557600080fd5b50565b6000813590506107b781610791565b92915050565b6000602082840312156107d3576107d261078c565b5b60006107e1848285016107a8565b91505092915050565b60008115159050919050565b6107ff816107ea565b82525050565b600060808201905061081a600083018761072e565b610827602083018661072e565b6108346040830185610762565b61084160608301846107f6565b95945050505050565b6108538161071c565b811461085e57600080fd5b50565b6000813590506108708161084a565b92915050565b6000806040838503121561088d5761088c61078c565b5b600061089b858286016107a8565b92505060206108ac85828601610861565b9150509250929050565b7f4e487b7100000000000000000000000000000000000000000000000000000000600052601160045260246000fd5b60006108f082610758565b91507fffffffffffffffffffffffffffffffffffffffffffffffffffffffffffffffff8203610922576109216108b6565b5b600182019050919050565b60006040820190506109426000830185610762565b61094f6020830184610762565b9392505050565b600082825260208201905092915050565b7f4f6e6c7920636f6d70616e792063616e20706572666f726d207468697320616360008201527f74696f6e00000000000000000000000000000000000000000000000000000000602082015250565b60006109c3602483610956565b91506109ce82610967565b604082019050919050565b600060208201905081810360008301526109f2816109b6565b9050919050565b7f4974656d20616c72656164792076657269666965640000000000000000000000600082015250565b6000610a2f601583610956565b9150610a3a826109f9565b602082019050919050565b60006020820190508181036000830152610a5e81610a22565b9050919050565b6000610a7082610758565b9150610a7b83610758565b9250828202610a8981610758565b91508282048414831517610aa057610a9f6108b6565b5b5092915050565b7f4e487b7100000000000000000000000000000000000000000000000000000000600052601260045260246000fd5b6000610ae182610758565b9150610aec83610758565b925082610afc57610afb610aa7565b5b828204905092915050565b7f496e73756666696369656e7420636f6e74726163742062616c616e6365000000600082015250565b6000610b3d601d83610956565b9150610b4882610b07565b602082019050919050565b60006020820190508181036000830152610b6c81610b30565b9050919050565b6000606082019050610b886000830186610762565b610b956020830185610762565b610ba26040830184610762565b94935050505056fea2646970667358221220a18a4796630f445a69cfe5564788b51c26374c23ece25f4775580b8b52aa852964736f6c634300081c0033",
  "linkReferences": {},
  "deployedLinkReferences": {}
}